{
  "contractName": "SadamContract",
  "abi": [
    {
      "inputs": [
        {
          "internalType": "int256",
          "name": "_age",
          "type": "int256"
        },
        {
          "internalType": "string",
          "name": "_name",
          "type": "string"
        },
        {
          "internalType": "string",
          "name": "_course",
          "type": "string"
        },
        {
          "internalType": "bool",
          "name": "_isActive",
          "type": "bool"
        }
      ],
      "name": "setSadamData",
      "outputs": [],
      "stateMutability": "nonpayable",
      "type": "function"
    },
    {
      "inputs": [],
      "name": "getSadamData",
      "outputs": [
        {
          "internalType": "int256",
          "name": "",
          "type": "int256"
        },
        {
          "internalType": "string",
          "name": "",
          "type": "string"
        },
        {
          "internalType": "string",
          "name": "",
          "type": "string"
        },
        {
          "internalType": "bool",
          "name": "",
          "type": "bool"
        }
      ],
      "stateMutability": "view",
      "type": "function",
      "constant": true
    }
  ],
  "bytecode": "0x608060405234801561001057600080fd5b50610877806100206000396000f3fe608060405234801561001057600080fd5b50600436106100365760003560e01c8063064434d71461003b578063c7baaf6e1461005c575b600080fd5b610043610078565b60405161005394939291906102c6565b60405180910390f35b610076600480360381019061007191906104ba565b6101bb565b005b60006060806000805460016002600360009054906101000a900460ff168280546100a190610588565b80601f01602080910402602001604051908101604052809291908181526020018280546100cd90610588565b801561011a5780601f106100ef5761010080835404028352916020019161011a565b820191906000526020600020905b8154815290600101906020018083116100fd57829003601f168201915b5050505050925081805461012d90610588565b80601f016020809104026020016040519081016040528092919081815260200182805461015990610588565b80156101a65780601f1061017b576101008083540402835291602001916101a6565b820191906000526020600020905b81548152906001019060200180831161018957829003601f168201915b50505050509150935093509350935090919293565b8360008190555082600190816101d1919061076f565b5081600290816101e1919061076f565b5080600360006101000a81548160ff02191690831515021790555050505050565b6000819050919050565b61021581610202565b82525050565b600081519050919050565b600082825260208201905092915050565b60005b8381101561025557808201518184015260208101905061023a565b60008484015250505050565b6000601f19601f8301169050919050565b600061027d8261021b565b6102878185610226565b9350610297818560208601610237565b6102a081610261565b840191505092915050565b60008115159050919050565b6102c0816102ab565b82525050565b60006080820190506102db600083018761020c565b81810360208301526102ed8186610272565b905081810360408301526103018185610272565b905061031060608301846102b7565b95945050505050565b6000604051905090565b600080fd5b600080fd5b61033681610202565b811461034157600080fd5b50565b6000813590506103538161032d565b92915050565b600080fd5b600080fd5b7f4e487b7100000000000000000000000000000000000000000000000000000000600052604160045260246000fd5b61039b82610261565b810181811067ffffffffffffffff821117156103ba576103b9610363565b5b80604052505050565b60006103cd610319565b90506103d98282610392565b919050565b600067ffffffffffffffff8211156103f9576103f8610363565b5b61040282610261565b9050602081019050919050565b82818337600083830152505050565b600061043161042c846103de565b6103c3565b90508281526020810184848401111561044d5761044c61035e565b5b61045884828561040f565b509392505050565b600082601f83011261047557610474610359565b5b813561048584826020860161041e565b91505092915050565b610497816102ab565b81146104a257600080fd5b50565b6000813590506104b48161048e565b92915050565b600080600080608085870312156104d4576104d3610323565b5b60006104e287828801610344565b945050602085013567ffffffffffffffff81111561050357610502610328565b5b61050f87828801610460565b935050604085013567ffffffffffffffff8111156105305761052f610328565b5b61053c87828801610460565b925050606061054d878288016104a5565b91505092959194509250565b7f4e487b7100000000000000000000000000000000000000000000000000000000600052602260045260246000fd5b600060028204905060018216806105a057607f821691505b6020821081036105b3576105b2610559565b5b50919050565b60008190508160005260206000209050919050565b60006020601f8301049050919050565b600082821b905092915050565b60006008830261061b7fffffffffffffffffffffffffffffffffffffffffffffffffffffffffffffffff826105de565b61062586836105de565b95508019841693508086168417925050509392505050565b6000819050919050565b6000819050919050565b600061066c6106676106628461063d565b610647565b61063d565b9050919050565b6000819050919050565b61068683610651565b61069a61069282610673565b8484546105eb565b825550505050565b600090565b6106af6106a2565b6106ba81848461067d565b505050565b5b818110156106de576106d36000826106a7565b6001810190506106c0565b5050565b601f821115610723576106f4816105b9565b6106fd846105ce565b8101602085101561070c578190505b610720610718856105ce565b8301826106bf565b50505b505050565b600082821c905092915050565b600061074660001984600802610728565b1980831691505092915050565b600061075f8383610735565b9150826002028217905092915050565b6107788261021b565b67ffffffffffffffff81111561079157610790610363565b5b61079b8254610588565b6107a68282856106e2565b600060209050601f8311600181146107d957600084156107c7578287015190505b6107d18582610753565b865550610839565b601f1984166107e7866105b9565b60005b8281101561080f578489015182556001820191506020850194506020810190506107ea565b8683101561082c5784890151610828601f891682610735565b8355505b6001600288020188555050505b50505050505056fea26469706673582212206805f612e120fef93b7a5fa3afb0c241e6d62c45ee660418e586a775e720b28664736f6c63430008110033",
  "immutableReferences": {},
  "source": "//SPDX-License-Identifier: MIT\npragma solidity ^0.8.17;\n\ncontract SadamContract {\n    int256 private age;\n    string private name;\n    string private course;\n    bool private isActive;\n\n    function setSadamData(\n        int256 _age,\n        string memory _name,\n        string memory _course,\n        bool _isActive\n    ) public {\n        age = _age;\n        name = _name;\n        course = _course;\n        isActive = _isActive;\n    }\n\n    function getSadamData()\n        public\n        view\n        returns (\n            int256,\n            string memory,\n            string memory,\n            bool\n        )\n    {\n        return (age, name, course, isActive);\n    }\n}",
  "sourcePath": "/home/sadam/solidity-projects/sadam-khan/contracts/sadam_contract.sol",
  "compiler": {
    "name": "solc",
    "version": "0.8.17+commit.8df45f5f.Emscripten.clang"
  },
  "schemaVersion": "3.4.11",
  "updatedAt": "2023-01-20T21:50:22.812Z",
  "networkType": "ethereum",
  "devdoc": {
    "kind": "dev",
    "methods": {},
    "version": 1
  },
  "userdoc": {
    "kind": "user",
    "methods": {},
    "version": 1
  }
}